:100000000C9461000C9473000C9473000C947300B6
:100010000C9473000C9473000C9473000C94730094
:100020000C9473000C9473000C9473000C94730084
:100030000C9473000C9473000C9473000C94730074
:100040000C94A2000C9473000C9473000C94730035
:100050000C9473000C9473000C9473000C94730054
:100060000C9473000C947300000000070002010060
:100070000003040600000000000000000102040864
:100080001020408001020408102001020408102002
:10009000040404040404040402020202020203032E
:1000A00003030303000000002300260029000000D2
:1000B0000000250028002B0000000000240027007D
:1000C0002A0011241FBECFEFD8E0DEBFCDBF11E064
:1000D000A0E0B1E001C01D92A930B107E1F70E9494
:1000E00055020C94A4020C94000061E082E00C9490
:1000F0005B0160E082E00E94940182E090E00E9457
:10010000EC0061E082E00E9494018AE090E00E94AD
:10011000EC0060E082E00E94940160E084E00E94D4
:100120005B0120E432E44FE050E061E084E00E94B3
:10013000CA01CB016AE370E00E946D02CB01089511
:100140000C9479001F920F920FB60F9211242F93E7
:100150003F938F939F93AF93BF93809101019091B1
:100160000201A0910301B09104013091000123E04C
:10017000230F2D3720F40196A11DB11D05C026E8DF
:10018000230F0296A11DB11D209300018093010150
:1001900090930201A0930301B093040180910501A3
:1001A00090910601A0910701B09108010196A11D4F
:1001B000B11D8093050190930601A0930701B093B0
:1001C0000801BF91AF919F918F913F912F910F9017
:1001D0000FBE0F901F9018950197009739F0880F68
:1001E000991F880F991F02970197F1F70895789446
:1001F00084B5826084BD84B5816084BD85B582602C
:1002000085BD85B5816085BDEEE6F0E080818160C9
:100210008083E1E8F0E010828081826080838081C9
:1002200081608083E0E8F0E0808181608083E1EBA1
:10023000F0E0808184608083E0EBF0E08081816089
:100240008083EAE7F0E0808184608083808182603F
:100250008083808181608083808180688083109228
:10026000C1000895833081F028F4813099F0823004
:10027000A1F008958630A9F08730B9F08430D1F428
:10028000809180008F7D03C0809180008F77809364
:100290008000089584B58F7702C084B58F7D84BDBA
:1002A00008958091B0008F7703C08091B0008F7D5A
:1002B0008093B0000895CF93DF9390E0FC01E45861
:1002C000FF4F2491FC01E057FF4F8491882349F1AF
:1002D00090E0880F991FFC01E854FF4FA591B4915D
:1002E00082559F4FFC01C591D4919FB7611108C001
:1002F000F8948C91209582238C93888182230AC064
:10030000623051F4F8948C91322F309583238C9382
:100310008881822B888304C0F8948C91822B8C93E3
:100320009FBFDF91CF9108950F931F93CF93DF93DA
:100330001F92CDB7DEB7282F30E0F901E859FF4F03
:100340008491F901E458FF4F1491F901E057FF4FF0
:1003500004910023C9F0882321F069830E943201AF
:100360006981E02FF0E0EE0FFF1FE255FF4FA591EE
:10037000B4919FB7F8948C91611103C010958123BB
:1003800001C0812B8C939FBF0F90DF91CF911F9164
:100390000F9108958F929F92AF92BF92CF92DF926A
:1003A000EF92FF920F931F93CF93DF9390E0FC01A6
:1003B000E458FF4F0491FC01E057FF4F7491611125
:1003C00002C010E001C0102FDA01C901BF70672F11
:1003D00070E0660F771F6C557F4F812C912C540174
:1003E000FB01C591D491E881E023E11310C07501B0
:1003F00064012FEFC21AD20AE20AF20A881699069D
:10040000AA06BB0609F441C046015701ECCFFB0127
:10041000C591D491E881E023E11779F07501640179
:100420002FEFC21AD20AE20AF20A88169906AA0621
:10043000BB0659F146015701EDCF88199909AA0960
:10044000BB0920E030E0A901FB01C591D49168818E
:10045000602361130AC0281739074A075B07A9F010
:100460002F5F3F4F4F4F5F4FF2CFA5E1B0E00E94AB
:100470006202605F7F4F8F4F9F4F24E09695879574
:10048000779567952A95D1F703C060E070E0CB01BE
:10049000DF91CF911F910F91FF90EF90DF90CF9060
:1004A000BF90AF909F908F9008950E94F7000E9498
:1004B0007500C0E0D0E00E94A0002097E1F30E9408
:1004C0000000F9CF0E948102A59F900DB49F900D6E
:1004D000A49F800D911D1124089597FB072E16F4FB
:1004E000009407D077FD09D00E94900207FC05D048
:1004F0003EF4909581959F4F0895709561957F4F3B
:100500000895A29FB001B39FC001A39F700D811DEC
:100510001124911DB29F700D811D1124911D08950C
:10052000AA1BBB1B51E107C0AA1FBB1FA617B70719
:1005300010F0A61BB70B881F991F5A95A9F7809535
:0C0540009095BC01CD010895F894FFCF08
:00000001FF
